:1000000002308A00EC2A0000831A0A28A400030E9A
:10001000A5000F288312A400030EA500A5140A084A
:10002000AB008A018313A40E0408A6002008A700D1
:100030002108A8002208A9002308AA0083128B1E09
:1000400023280B193628260884002708A000280832
:10005000A1002908A2002A08A3002B088A00250E67
:1000600083008312240EA518831609000F08A3002D
:100070000E08A0000F082302031D36282008AD003B
:100080002308AE008E018F018E013B0881002C14E5
:100090000B118A1123284A308400000803196128B3
:1000A0000630A100BF30A0006400A00B5428A10BB3
:1000B00052287A30A000A00B5B285E286400800BD9
:1000C000502808000B138B138B1B63280C30A000E7
:1000D0008101813084000008F03907388000640015
:1000E0000008F739A019F039200480001F101F13F1
:1000F00083161F109F101F119F110108C739383830
:1001000081000530831290000330990083160508A2
:100110000638FB398500640010308312A000A00B64
:100120008F2819088C11A130831699002A30850078
:100130008312002B0330CB02031CA8284B30840011
:1001400000080319A828A62800006400800BA42832
:10015000080083160510831205146E30C700963010
:10016000C80005164708CB009A2005124708CB00A7
:100170009A20C803C808031DB128831605140A3045
:100180008312CA004B20080083160514831205163B
:100190004908CB009A2005124908CB009A20CA03CF
:1001A000CA08031DC7280800FF30C900CA00C420C0
:1001B000FF30C900CA00C420FF30C900CA00C420F3
:1001C000FF30C900CA00C420FF30C900CA00C420E3
:1001D000FF30C900CA00C420FF30C900CA00C420D3
:1001E0000430C900FA30CA004B20C90BF228C801FC
:1001F0003E084802031806299630C900E630CA00B6
:10020000C420C830CA004B20C80AF8280C30C900E6
:10021000FA30CA004B20C90B08298A0100280800BF
:100220000B138B138B1B1129C6100130BF000E302E
:10023000C500BF0A3F08A038C70083169900831283
:10024000A920C830CA004B2081010B110A30CA0016
:100250004B2046100B1946140108C400AC10461878
:10026000AC144408BB00C408031D3A2946183A29B7
:10027000C50350294408FA3C031C4029461C442964
:100280000230BE00D4204F294408023C03184F29F5
:100290004408953C031C4F290130BE00D420C614ED
:1002A000C6185529C508031D1929C508031D5B2952
:1002B0000430BE00D4203F080E3C031CAD29BF0A09
:1002C0003F08A038C7008316990083124408FF3CFA
:1002D000BB000B08A0008B1383169B0183123F0801
:1002E00083169A009C131C1555309D00AA309D0062
:1002F0009C149C1879291C11831220088B040B086C
:10030000A0008B13013083169B0083123B088316D9
:100310009A009C131C1555309D00AA309D009C141A
:100320009C1890291C11831220088B040B08A00034
:100330008B13023083169B008312440883169A00A5
:100340009C131C1555309D00AA309D009C149C18D0
:10035000A7291C11831220088B04012BB401B301BF
:10036000B001AF01C501C60147108E018F018E019A
:1003700081010B110C108B16C0308B048519C2291A
:100380008A0100282C1CBE292E08B0002D08AF00C1
:100390002C1064008519CE298A0100282C1CCA293A
:1003A00030082E02031CDD29031DDA292D082F0237
:1003B0000318DD29AF0A0319B00A2E083002031C06
:1003C000EB29031DE7292F082D020318EB292F081D
:1003D0000319B003AF03C60FF0290330BE00D420C9
:1003E0002F082D02031DF82930082E020319FE29BB
:1003F0002E08B0002D08AF00C501032AC50A450824
:10040000033C031C4714471CC8293008B2002F08BE
:10041000B1003008BA002F08B900FF30C8008316B9
:100420000514831205164808CB009A2005124808C7
:10043000CB009A204808CB009A20C8034808643CA7
:10044000031C122A0230C900FA30CA004B20C90B23
:10045000242A022B8316051083120510FA30C400DB
:100460005030C50005164408CB009A2005124408F8
:10047000CB009A20C503C508031D322A8316051434
:100480000A308312CA004B20080083160514F0308E
:100490008312C9006430CA00C420F030C90064303F
:1004A000CA00C420F030C9006430CA00C4201E3025
:1004B000CA004B20C830C9007830CA00C420C830F8
:1004C000C9007830CA00C420C830C9007830CA00DA
:1004D000C4201E30CA004B207830C900C830CA0082
:1004E000C4207830C900C830CA00C4207830C900A0
:1004F000C830CA00C420902B38083602031C8A2A50
:10050000031D862A3508370203188A2A3208B000EC
:100510003108AF003808B6003708B5003A082E0297
:10052000031C9B2A031D982A2D08390203189B2AB5
:10053000B90A0319BA0A2E083A02031CA92A031D94
:10054000A52A39082D020318A92A39080319BA0364
:10055000B903BC0A3C080F3C0318CB2ABC01BD0AF6
:1005600030083A02031CBD2A031DBA2A39082F029B
:100570000318BD2AAF0A0319B00A3A083002031C57
:10058000CB2A031DC72A2F0839020318CB2A2F08AC
:100590000319B003AF033D080F3C0318EB2ABD015C
:1005A00030083202031CDE2A031DDA2A31082F022A
:1005B0000318DE2A31080319B203B10332083002EE
:1005C000031CEB2A031DE82A2F0831020318EB2A2B
:1005D000B10A0319B20A912B03081F3983001F13B4
:1005E00083161F109F101F119F110730831299004F
:1005F0000230C4009630CA004B20C40BFA2A62288D
:100600001029AE292C1064008519082B8A010028B6
:100610002C1C032B2E083202031C212B031D142B30
:1006200031082D020318212B2D083102B7003208A2
:10063000B8002E08031C2E0FB802AC1C4314AC14D7
:100640003D2B32082E02031C382B031D2B2B2D08AB
:1006500031020318382B31082D02B7002E08B800DC
:100660003208031C320FB802AC184314AC103D2BF7
:10067000B801B701AC10C1014310B808031D442BE9
:100680003708023C03187D2BB401B3010E30C200C1
:100690004208013C03185E2B3808A3003708A2006B
:1006A0004208A0000319592B0310A30CA20CA00BA5
:1006B000542B220822185E2BC203482B42080D3C03
:1006C000A000200CC100C10C3F30C1054008410210
:1006D0000318732B0130C0004310AC1C712BA920F0
:1006E000722B2A227C2BC00A431C7C2B4310AC1C8F
:1006F0007B2BA9207C2B2A22912B0130C000B30A2E
:100700000319B40A34082D3C0318902BFF3A031D3B
:100710008D2B3308E03C0318902BB401B301452A1C
:060720007C2A022B63009D
:02400E004B3F26
:00000001FF
;PIC12F675
;CRC=FDD2  CREATED="02-θών-15 10:56"
